{
  "contractName": "ECTools",
  "abi": [
    {
      "constant": true,
      "inputs": [
        {
          "name": "hash",
          "type": "bytes32"
        },
        {
          "name": "sig",
          "type": "bytes"
        }
      ],
      "name": "recover",
      "outputs": [
        {
          "name": "",
          "type": "address"
        }
      ],
      "payable": false,
      "stateMutability": "pure",
      "type": "function"
    },
    {
      "constant": true,
      "inputs": [
        {
          "name": "_msg",
          "type": "bytes32"
        }
      ],
      "name": "toEthereumSignedMessage",
      "outputs": [
        {
          "name": "",
          "type": "bytes32"
        }
      ],
      "payable": false,
      "stateMutability": "pure",
      "type": "function"
    },
    {
      "constant": true,
      "inputs": [
        {
          "name": "_msg",
          "type": "bytes32"
        },
        {
          "name": "sig",
          "type": "bytes"
        }
      ],
      "name": "prefixedRecover",
      "outputs": [
        {
          "name": "",
          "type": "address"
        }
      ],
      "payable": false,
      "stateMutability": "pure",
      "type": "function"
    }
  ],
  "bytecode": "0x61046f610030600b82828239805160001a6073146000811461002057610022565bfe5b5030600052607381538281f300730000000000000000000000000000000000000000301460806040526004361061006e576000357c0100000000000000000000000000000000000000000000000000000000900463ffffffff16806319045a2514610073578063380388f11461011d578063fc960e15146101c7575b600080fd5b6100db6004803603810190808035600019169060200190929190803590602001908201803590602001908080601f0160208091040260200160405190810160405280939291908181526020018383808284378201915050505050509192919290505050610207565b604051808273ffffffffffffffffffffffffffffffffffffffff1673ffffffffffffffffffffffffffffffffffffffff16815260200191505060405180910390f35b6101856004803603810190808035600019169060200190929190803590602001908201803590602001908080601f01602080910402602001604051908101604052809392919081815260200183838082843782019150505050505091929192905050506102ff565b604051808273ffffffffffffffffffffffffffffffffffffffff1673ffffffffffffffffffffffffffffffffffffffff16815260200191505060405180910390f35b6101e96004803603810190808035600019169060200190929190505050610320565b60405180826000191660001916815260200191505060405180910390f35b6000806000806041855114151561022157600093506102f6565b6020850151925060408501519150606085015160001a9050601b8160ff16101561024c57601b810190505b601b8160ff16141580156102645750601c8160ff1614155b1561027257600093506102f6565b600186828585604051600081526020016040526040518085600019166000191681526020018460ff1660ff1681526020018360001916600019168152602001826000191660001916815260200194505050505060206040516020810390808403906000865af11580156102e9573d6000803e3d6000fd5b5050506020604051035193505b50505092915050565b60008061030b84610320565b90506103178184610207565b91505092915050565b600060606040805190810160405280601c81526020017f19457468657265756d205369676e6564204d6573736167653a0a333200000000815250905080836040516020018083805190602001908083835b6020831015156103965780518252602082019150602081019050602083039250610371565b6001836020036101000a0380198251168184511680821785525050505050509050018260001916600019168152602001925050506040516020818303038152906040526040518082805190602001908083835b60208310151561040e57805182526020820191506020810190506020830392506103e9565b6001836020036101000a03801982511681845116808217855250505050505090500191505060405180910390209150509190505600a165627a7a723058202e454d27e71354eeba959b0e7b0fc9509f91eeca0e08a5bbff56c696fd90c36e0029",
  "source": "pragma solidity ^0.4.24;\n\nlibrary ECTools {\n\n\t/**\n\t * @dev Recover signer address from a message by using his signature\n\t * @param hash bytes32 message, the hash is the signed message. What is recovered is the signer address.\n\t * @param sig bytes signature\n\t */\n\tfunction recover(bytes32 hash, bytes sig) public pure returns (address) {\n\t\tbytes32 r;\n\t\tbytes32 s;\n\t\tuint8 v;\n\n\t\t//Check the signature length\n\t\tif (sig.length != 65) {\n\t\t\treturn (address(0));\n\t\t}\n\n\t\t// Divide the signature in r, s and v variables\n\t\tassembly {\n\t\t\tr := mload(add(sig, 32))\n\t\t\ts := mload(add(sig, 64))\n\t\t\tv := byte(0, mload(add(sig, 96)))\n\t\t}\n\n\t\t// Version of signature should be 27 or 28, but 0 and 1 are also possible versions\n\t\tif (v < 27) {\n\t\t\tv += 27;\n\t\t}\n\n\t\t// If the version is correct return the signer address\n\t\tif (v != 27 && v != 28) {\n\t\t\treturn (address(0));\n\t\t} else {\n\t\t\treturn ecrecover(hash, v, r, s);\n\t\t}\n\t}\n\n\tfunction toEthereumSignedMessage(bytes32 _msg) public pure returns (bytes32) {\n\t\tbytes memory prefix = \"\\x19Ethereum Signed Message:\\n32\";\n\t\treturn keccak256(abi.encodePacked(prefix, _msg));\n\t}\n\n\tfunction prefixedRecover(bytes32 _msg, bytes sig) public pure returns (address) {\n\t\tbytes32 ethSignedMsg = toEthereumSignedMessage(_msg);\n\t\treturn recover(ethSignedMsg, sig);\n\t}\n}",
  "sourcePath": "/Users/ventsislav/Documents/test/state-channel/contracts/lib/ECTools.sol",
  "compiler": {
    "name": "solc",
    "version": "0.4.25+commit.59dbf8f1.Emscripten.clang"
  },
  "schemaVersion": "0.9.8",
  "updatedAt": "2018-11-28T11:53:10.136Z"
}