{
  "contractName": "RSP",
  "abi": [
    {
      "constant": true,
      "inputs": [],
      "name": "playerTwo",
      "outputs": [
        {
          "name": "",
          "type": "address"
        }
      ],
      "payable": false,
      "stateMutability": "view",
      "type": "function"
    },
    {
      "constant": true,
      "inputs": [
        {
          "name": "",
          "type": "address"
        }
      ],
      "name": "addressToPrise",
      "outputs": [
        {
          "name": "",
          "type": "uint256"
        }
      ],
      "payable": false,
      "stateMutability": "view",
      "type": "function"
    },
    {
      "constant": true,
      "inputs": [],
      "name": "endTime",
      "outputs": [
        {
          "name": "",
          "type": "uint256"
        }
      ],
      "payable": false,
      "stateMutability": "view",
      "type": "function"
    },
    {
      "constant": true,
      "inputs": [],
      "name": "disputePlayer",
      "outputs": [
        {
          "name": "",
          "type": "address"
        }
      ],
      "payable": false,
      "stateMutability": "view",
      "type": "function"
    },
    {
      "constant": true,
      "inputs": [],
      "name": "highestStateNonce",
      "outputs": [
        {
          "name": "",
          "type": "uint256"
        }
      ],
      "payable": false,
      "stateMutability": "view",
      "type": "function"
    },
    {
      "constant": true,
      "inputs": [],
      "name": "playerOne",
      "outputs": [
        {
          "name": "",
          "type": "address"
        }
      ],
      "payable": false,
      "stateMutability": "view",
      "type": "function"
    },
    {
      "constant": true,
      "inputs": [],
      "name": "dispute",
      "outputs": [
        {
          "name": "",
          "type": "bool"
        }
      ],
      "payable": false,
      "stateMutability": "view",
      "type": "function"
    },
    {
      "constant": false,
      "inputs": [],
      "name": "openChannel",
      "outputs": [],
      "payable": true,
      "stateMutability": "payable",
      "type": "function"
    },
    {
      "constant": false,
      "inputs": [],
      "name": "joinChannel",
      "outputs": [],
      "payable": true,
      "stateMutability": "payable",
      "type": "function"
    },
    {
      "constant": false,
      "inputs": [
        {
          "name": "_playerOnePrise",
          "type": "uint256"
        },
        {
          "name": "_playerTwoPrise",
          "type": "uint256"
        },
        {
          "name": "_nonce",
          "type": "uint256"
        },
        {
          "name": "_signedData",
          "type": "bytes"
        }
      ],
      "name": "closeChannel",
      "outputs": [],
      "payable": false,
      "stateMutability": "nonpayable",
      "type": "function"
    },
    {
      "constant": false,
      "inputs": [
        {
          "name": "_playerOnePrise",
          "type": "uint256"
        },
        {
          "name": "_playerTwoPrise",
          "type": "uint256"
        },
        {
          "name": "_nonce",
          "type": "uint256"
        },
        {
          "name": "_signedData",
          "type": "bytes"
        }
      ],
      "name": "closeChannelDispute",
      "outputs": [],
      "payable": false,
      "stateMutability": "nonpayable",
      "type": "function"
    },
    {
      "constant": false,
      "inputs": [],
      "name": "payPrises",
      "outputs": [],
      "payable": false,
      "stateMutability": "nonpayable",
      "type": "function"
    }
  ],
  "bytecode": "0x608060405234801561001057600080fd5b506110a0806100206000396000f3006080604052600436106100ba576000357c0100000000000000000000000000000000000000000000000000000000900463ffffffff168063036dfaa9146100bf5780630a9f85dd1461014657806325b2304d1461019d5780633197cbb6146101f457806335610ead1461021f57806341c75e12146102765780635bfd0e75146102fd578063776dd2ad1461032857806389be87a11461033f578063af920dc714610349578063bcffcf4114610353578063f240f7c3146103aa575b600080fd5b3480156100cb57600080fd5b50610144600480360381019080803590602001909291908035906020019092919080359060200190929190803590602001908201803590602001908080601f01602080910402602001604051908101604052809392919081815260200183838082843782019150505050505091929192905050506103d9565b005b34801561015257600080fd5b5061015b6107c6565b604051808273ffffffffffffffffffffffffffffffffffffffff1673ffffffffffffffffffffffffffffffffffffffff16815260200191505060405180910390f35b3480156101a957600080fd5b506101de600480360381019080803573ffffffffffffffffffffffffffffffffffffffff1690602001909291905050506107ec565b6040518082815260200191505060405180910390f35b34801561020057600080fd5b50610209610804565b6040518082815260200191505060405180910390f35b34801561022b57600080fd5b5061023461080a565b604051808273ffffffffffffffffffffffffffffffffffffffff1673ffffffffffffffffffffffffffffffffffffffff16815260200191505060405180910390f35b34801561028257600080fd5b506102fb600480360381019080803590602001909291908035906020019092919080359060200190929190803590602001908201803590602001908080601f0160208091040260200160405190810160405280939291908181526020018383808284378201915050505050509192919290505050610830565b005b34801561030957600080fd5b50610312610af9565b6040518082815260200191505060405180910390f35b34801561033457600080fd5b5061033d610aff565b005b610347610ce3565b005b610351610dc5565b005b34801561035f57600080fd5b50610368610f17565b604051808273ffffffffffffffffffffffffffffffffffffffff1673ffffffffffffffffffffffffffffffffffffffff16815260200191505060405180910390f35b3480156103b657600080fd5b506103bf610f3c565b604051808215151515815260200191505060405180910390f35b6000806000809054906101000a900473ffffffffffffffffffffffffffffffffffffffff1673ffffffffffffffffffffffffffffffffffffffff163373ffffffffffffffffffffffffffffffffffffffff1614806104845750600160009054906101000a900473ffffffffffffffffffffffffffffffffffffffff1673ffffffffffffffffffffffffffffffffffffffff163373ffffffffffffffffffffffffffffffffffffffff16145b151561048f57600080fd5b600660009054906101000a900460ff161515156104ab57600080fd5b8585856040516020018084815260200183815260200182815260200193505050506040516020818303038152906040526040518082805190602001908083835b60208310151561051057805182526020820191506020810190506020830392506104eb565b6001836020036101000a038019825116818451168082178552505050505050905001915050604051809103902091506105498284610f4f565b90506000809054906101000a900473ffffffffffffffffffffffffffffffffffffffff1673ffffffffffffffffffffffffffffffffffffffff163373ffffffffffffffffffffffffffffffffffffffff16141561060857600160009054906101000a900473ffffffffffffffffffffffffffffffffffffffff16600260006101000a81548173ffffffffffffffffffffffffffffffffffffffff021916908373ffffffffffffffffffffffffffffffffffffffff16021790555061066b565b6000809054906101000a900473ffffffffffffffffffffffffffffffffffffffff16600260006101000a81548173ffffffffffffffffffffffffffffffffffffffff021916908373ffffffffffffffffffffffffffffffffffffffff1602179055505b600260009054906101000a900473ffffffffffffffffffffffffffffffffffffffff1673ffffffffffffffffffffffffffffffffffffffff168173ffffffffffffffffffffffffffffffffffffffff161415156106c757600080fd5b6078420160048190555085600360008060009054906101000a900473ffffffffffffffffffffffffffffffffffffffff1673ffffffffffffffffffffffffffffffffffffffff1673ffffffffffffffffffffffffffffffffffffffff168152602001908152602001600020819055508460036000600160009054906101000a900473ffffffffffffffffffffffffffffffffffffffff1673ffffffffffffffffffffffffffffffffffffffff1673ffffffffffffffffffffffffffffffffffffffff16815260200190815260200160002081905550836005819055506001600660006101000a81548160ff021916908315150217905550505050505050565b600160009054906101000a900473ffffffffffffffffffffffffffffffffffffffff1681565b60036020528060005260406000206000915090505481565b60045481565b600260009054906101000a900473ffffffffffffffffffffffffffffffffffffffff1681565b6000806000809054906101000a900473ffffffffffffffffffffffffffffffffffffffff1673ffffffffffffffffffffffffffffffffffffffff163373ffffffffffffffffffffffffffffffffffffffff1614806108db5750600160009054906101000a900473ffffffffffffffffffffffffffffffffffffffff1673ffffffffffffffffffffffffffffffffffffffff163373ffffffffffffffffffffffffffffffffffffffff16145b15156108e657600080fd5b60045442111515156108f757600080fd5b600660009054906101000a900460ff16151561091257600080fd5b6005548411151561092257600080fd5b8585856040516020018084815260200183815260200182815260200193505050506040516020818303038152906040526040518082805190602001908083835b6020831015156109875780518252602082019150602081019050602083039250610962565b6001836020036101000a038019825116818451168082178552505050505050905001915050604051809103902091506109c08284610f4f565b9050600260009054906101000a900473ffffffffffffffffffffffffffffffffffffffff1673ffffffffffffffffffffffffffffffffffffffff168173ffffffffffffffffffffffffffffffffffffffff1614151515610a1f57600080fd5b85600360008060009054906101000a900473ffffffffffffffffffffffffffffffffffffffff1673ffffffffffffffffffffffffffffffffffffffff1673ffffffffffffffffffffffffffffffffffffffff168152602001908152602001600020819055508460036000600160009054906101000a900473ffffffffffffffffffffffffffffffffffffffff1673ffffffffffffffffffffffffffffffffffffffff1673ffffffffffffffffffffffffffffffffffffffff1681526020019081526020016000208190555042600481905550505050505050565b60055481565b60008060009054906101000a900473ffffffffffffffffffffffffffffffffffffffff1673ffffffffffffffffffffffffffffffffffffffff163373ffffffffffffffffffffffffffffffffffffffff161480610ba95750600160009054906101000a900473ffffffffffffffffffffffffffffffffffffffff1673ffffffffffffffffffffffffffffffffffffffff163373ffffffffffffffffffffffffffffffffffffffff16145b1515610bb457600080fd5b60045442111515610bc457600080fd5b6000600360003373ffffffffffffffffffffffffffffffffffffffff1673ffffffffffffffffffffffffffffffffffffffff16815260200190815260200160002054111515610c1257600080fd5b600360003373ffffffffffffffffffffffffffffffffffffffff1673ffffffffffffffffffffffffffffffffffffffff1681526020019081526020016000205490506000600360003373ffffffffffffffffffffffffffffffffffffffff1673ffffffffffffffffffffffffffffffffffffffff168152602001908152602001600020819055503373ffffffffffffffffffffffffffffffffffffffff166108fc829081150290604051600060405180830381858888f19350505050158015610cdf573d6000803e3d6000fd5b5050565b600073ffffffffffffffffffffffffffffffffffffffff166000809054906101000a900473ffffffffffffffffffffffffffffffffffffffff1673ffffffffffffffffffffffffffffffffffffffff16141515610d3f57600080fd5b336000806101000a81548173ffffffffffffffffffffffffffffffffffffffff021916908373ffffffffffffffffffffffffffffffffffffffff16021790555034600360003373ffffffffffffffffffffffffffffffffffffffff1673ffffffffffffffffffffffffffffffffffffffff16815260200190815260200160002081905550565b600073ffffffffffffffffffffffffffffffffffffffff166000809054906101000a900473ffffffffffffffffffffffffffffffffffffffff1673ffffffffffffffffffffffffffffffffffffffff1614151515610e2257600080fd5b600360008060009054906101000a900473ffffffffffffffffffffffffffffffffffffffff1673ffffffffffffffffffffffffffffffffffffffff1673ffffffffffffffffffffffffffffffffffffffff1681526020019081526020016000205434141515610e9057600080fd5b33600160006101000a81548173ffffffffffffffffffffffffffffffffffffffff021916908373ffffffffffffffffffffffffffffffffffffffff16021790555034600360003373ffffffffffffffffffffffffffffffffffffffff1673ffffffffffffffffffffffffffffffffffffffff16815260200190815260200160002081905550565b6000809054906101000a900473ffffffffffffffffffffffffffffffffffffffff1681565b600660009054906101000a900460ff1681565b600073__ECTools_______________________________63380388f184846040518363ffffffff167c010000000000000000000000000000000000000000000000000000000002815260040180836000191660001916815260200180602001828103825283818151815260200191508051906020019080838360005b83811015610fe6578082015181840152602081019050610fcb565b50505050905090810190601f1680156110135780820380516001836020036101000a031916815260200191505b50935050505060206040518083038186803b15801561103157600080fd5b505af4158015611045573d6000803e3d6000fd5b505050506040513d602081101561105b57600080fd5b81019080805190602001909291905050509050929150505600a165627a7a72305820fe92fb80fa37bbc5a5bd919dbf03706031dc9a31aa18ba57d4f6cbaf5ffefaf10029",
  "source": "pragma solidity ^0.4.24;\n\nimport \"openzeppelin-solidity/contracts/math/SafeMath.sol\";\nimport  \"./lib/ECTools.sol\";\n\n\ncontract RSP {\n\n    using SafeMath for uint256;\n\n    address public playerOne;\n    address public playerTwo;\n\n    address public disputePlayer;\n\n    mapping(address=>uint) public addressToPrise;\n\n    uint256 public endTime;\n    uint256 public highestStateNonce;\n\n    bool public dispute;\n\n    modifier onlyPlayer() {\n        require(msg.sender == playerOne || msg.sender == playerTwo);\n        _;\n    }\n\n    modifier onlyWithinTimeLimits() {\n        require(now <= endTime);\n        _;\n    }\n\n    modifier onlyAfterDisputePeriod() {\n        require(now > endTime);\n        _;\n    }\n\n    modifier onlyNotDisputeActive() {\n        require(!dispute);\n        _;\n    }\n\n    function openChannel() public payable {\n        require(playerOne == address(0));\n        playerOne = msg.sender;\n        addressToPrise[msg.sender] = msg.value;\n    }\n\n    function joinChannel() public payable {\n        require(playerOne != address(0));\n        require(msg.value == addressToPrise[playerOne]);\n        playerTwo = msg.sender;\n        addressToPrise[msg.sender] = msg.value;\n    }\n\n    function closeChannel(uint256 _playerOnePrise,\n        uint256 _playerTwoPrise,\n        uint256 _nonce,\n        bytes _signedData) public onlyPlayer onlyNotDisputeActive {\n        bytes32 bytes32Message = keccak256(abi.encodePacked(_playerOnePrise, _playerTwoPrise, _nonce));\n        address recoveredSigner = recover(bytes32Message, _signedData);\n\n        if (msg.sender == playerOne) {\n            disputePlayer = playerTwo;\n        } else {\n            disputePlayer = playerOne;\n        }\n\n        require(recoveredSigner == disputePlayer);\n\n        endTime = now + 2 minutes;\n\n        addressToPrise[playerOne] = _playerOnePrise;\n        addressToPrise[playerTwo] = _playerTwoPrise;\n        highestStateNonce = _nonce;\n\n        dispute = true;\n    }\n\n    function closeChannelDispute(uint256 _playerOnePrise,\n        uint256 _playerTwoPrise,\n        uint256 _nonce,\n        bytes _signedData) public onlyPlayer onlyWithinTimeLimits {\n        require(dispute);\n        require(_nonce > highestStateNonce);\n\n        bytes32 bytes32Message = keccak256(abi.encodePacked(_playerOnePrise, _playerTwoPrise, _nonce));\n        address recoveredSigner = recover(bytes32Message, _signedData);\n\n        require(recoveredSigner != disputePlayer);\n\n        addressToPrise[playerOne] = _playerOnePrise;\n        addressToPrise[playerTwo] = _playerTwoPrise;\n\n        endTime = now;\n\n    }\n\n    function payPrises() public onlyPlayer onlyAfterDisputePeriod {\n        require(addressToPrise[msg.sender] > 0);\n        uint priseForPlayer = addressToPrise[msg.sender];\n        addressToPrise[msg.sender] = 0;\n        msg.sender.transfer(priseForPlayer);\n    }\n\n    function recover(bytes32 _hash, bytes _signedDataByPlayer) internal pure returns (address) {\n        return ECTools.prefixedRecover(_hash, _signedDataByPlayer);\n    }\n\n}\n",
  "sourcePath": "/Users/ventsislav/Documents/test/state-channel/contracts/RSP.sol",
  "compiler": {
    "name": "solc",
    "version": "0.4.25+commit.59dbf8f1.Emscripten.clang"
  },
  "schemaVersion": "0.9.8",
  "updatedAt": "2018-11-28T11:53:10.144Z"
}