{
  "contractName": "RSP",
  "abi": [
    {
      "constant": true,
      "inputs": [],
      "name": "playerTwo",
      "outputs": [
        {
          "name": "",
          "type": "address"
        }
      ],
      "payable": false,
      "stateMutability": "view",
      "type": "function"
    },
    {
      "constant": true,
      "inputs": [],
      "name": "endTime",
      "outputs": [
        {
          "name": "",
          "type": "uint256"
        }
      ],
      "payable": false,
      "stateMutability": "view",
      "type": "function"
    },
    {
      "constant": true,
      "inputs": [],
      "name": "disputePlayer",
      "outputs": [
        {
          "name": "",
          "type": "address"
        }
      ],
      "payable": false,
      "stateMutability": "view",
      "type": "function"
    },
    {
      "constant": true,
      "inputs": [],
      "name": "highestStateNonce",
      "outputs": [
        {
          "name": "",
          "type": "uint256"
        }
      ],
      "payable": false,
      "stateMutability": "view",
      "type": "function"
    },
    {
      "constant": true,
      "inputs": [
        {
          "name": "",
          "type": "address"
        }
      ],
      "name": "addressToPrize",
      "outputs": [
        {
          "name": "",
          "type": "uint256"
        }
      ],
      "payable": false,
      "stateMutability": "view",
      "type": "function"
    },
    {
      "constant": true,
      "inputs": [],
      "name": "playerOne",
      "outputs": [
        {
          "name": "",
          "type": "address"
        }
      ],
      "payable": false,
      "stateMutability": "view",
      "type": "function"
    },
    {
      "constant": true,
      "inputs": [],
      "name": "deposit",
      "outputs": [
        {
          "name": "",
          "type": "uint256"
        }
      ],
      "payable": false,
      "stateMutability": "view",
      "type": "function"
    },
    {
      "constant": true,
      "inputs": [],
      "name": "dispute",
      "outputs": [
        {
          "name": "",
          "type": "bool"
        }
      ],
      "payable": false,
      "stateMutability": "view",
      "type": "function"
    },
    {
      "constant": false,
      "inputs": [],
      "name": "openChannel",
      "outputs": [],
      "payable": true,
      "stateMutability": "payable",
      "type": "function"
    },
    {
      "constant": false,
      "inputs": [],
      "name": "joinChannel",
      "outputs": [],
      "payable": true,
      "stateMutability": "payable",
      "type": "function"
    },
    {
      "constant": false,
      "inputs": [
        {
          "name": "_nonce",
          "type": "uint256"
        },
        {
          "name": "plOneAddr",
          "type": "address"
        },
        {
          "name": "_playerOnePrise",
          "type": "uint256"
        },
        {
          "name": "plTwoAddr",
          "type": "address"
        },
        {
          "name": "_playerTwoPrise",
          "type": "uint256"
        },
        {
          "name": "_signedData",
          "type": "bytes"
        }
      ],
      "name": "closeChannel",
      "outputs": [],
      "payable": false,
      "stateMutability": "nonpayable",
      "type": "function"
    },
    {
      "constant": false,
      "inputs": [
        {
          "name": "_nonce",
          "type": "uint256"
        },
        {
          "name": "plOneAddr",
          "type": "address"
        },
        {
          "name": "_playerOnePrise",
          "type": "uint256"
        },
        {
          "name": "plTwoAddr",
          "type": "address"
        },
        {
          "name": "_playerTwoPrise",
          "type": "uint256"
        },
        {
          "name": "_signedData",
          "type": "bytes"
        }
      ],
      "name": "closeChannelDispute",
      "outputs": [],
      "payable": false,
      "stateMutability": "nonpayable",
      "type": "function"
    },
    {
      "constant": true,
      "inputs": [],
      "name": "payPrizes",
      "outputs": [],
      "payable": false,
      "stateMutability": "view",
      "type": "function"
    }
  ],
  "bytecode": "0x608060405234801561001057600080fd5b506114cf806100206000396000f3006080604052600436106100c5576000357c0100000000000000000000000000000000000000000000000000000000900463ffffffff1680630a9f85dd146100ca5780633197cbb61461012157806335610ead1461014c5780635bfd0e75146101a3578063700b1b81146101ce57806389be87a11461029557806397af40121461029f578063af920dc7146102b6578063b3f85314146102c0578063bcffcf4114610317578063d0e30db01461036e578063f240f7c314610399578063fd29015b146103c8575b600080fd5b3480156100d657600080fd5b506100df61048f565b604051808273ffffffffffffffffffffffffffffffffffffffff1673ffffffffffffffffffffffffffffffffffffffff16815260200191505060405180910390f35b34801561012d57600080fd5b506101366104b5565b6040518082815260200191505060405180910390f35b34801561015857600080fd5b506101616104bb565b604051808273ffffffffffffffffffffffffffffffffffffffff1673ffffffffffffffffffffffffffffffffffffffff16815260200191505060405180910390f35b3480156101af57600080fd5b506101b86104e1565b6040518082815260200191505060405180910390f35b3480156101da57600080fd5b5061029360048036038101908080359060200190929190803573ffffffffffffffffffffffffffffffffffffffff16906020019092919080359060200190929190803573ffffffffffffffffffffffffffffffffffffffff16906020019092919080359060200190929190803590602001908201803590602001908080601f01602080910402602001604051908101604052809392919081815260200183838082843782019150505050505091929192905050506104e7565b005b61029d610a43565b005b3480156102ab57600080fd5b506102b4610b3f565b005b6102be610d23565b005b3480156102cc57600080fd5b50610301600480360381019080803573ffffffffffffffffffffffffffffffffffffffff169060200190929190505050610e75565b6040518082815260200191505060405180910390f35b34801561032357600080fd5b5061032c610e8d565b604051808273ffffffffffffffffffffffffffffffffffffffff1673ffffffffffffffffffffffffffffffffffffffff16815260200191505060405180910390f35b34801561037a57600080fd5b50610383610eb2565b6040518082815260200191505060405180910390f35b3480156103a557600080fd5b506103ae610eb8565b604051808215151515815260200191505060405180910390f35b3480156103d457600080fd5b5061048d60048036038101908080359060200190929190803573ffffffffffffffffffffffffffffffffffffffff16906020019092919080359060200190929190803573ffffffffffffffffffffffffffffffffffffffff16906020019092919080359060200190929190803590602001908201803590602001908080601f0160208091040260200160405190810160405280939291908181526020018383808284378201915050505050509192919290505050610ecb565b005b600160009054906101000a900473ffffffffffffffffffffffffffffffffffffffff1681565b60055481565b600260009054906101000a900473ffffffffffffffffffffffffffffffffffffffff1681565b60065481565b6000806000809054906101000a900473ffffffffffffffffffffffffffffffffffffffff1673ffffffffffffffffffffffffffffffffffffffff163373ffffffffffffffffffffffffffffffffffffffff1614806105925750600160009054906101000a900473ffffffffffffffffffffffffffffffffffffffff1673ffffffffffffffffffffffffffffffffffffffff163373ffffffffffffffffffffffffffffffffffffffff16145b151561059d57600080fd5b60055442111515156105ae57600080fd5b600760009054906101000a900460ff1615156105c957600080fd5b600654881115156105d957600080fd5b6105ec848761131f90919063ffffffff16565b6003541415156105fb57600080fd5b8787878787604051602001808681526020018573ffffffffffffffffffffffffffffffffffffffff1673ffffffffffffffffffffffffffffffffffffffff166c010000000000000000000000000281526014018481526020018373ffffffffffffffffffffffffffffffffffffffff1673ffffffffffffffffffffffffffffffffffffffff166c01000000000000000000000000028152601401828152602001955050505050506040516020818303038152906040526040518082805190602001908083835b6020831015156106e657805182526020820191506020810190506020830392506106c1565b6001836020036101000a0380198251168184511680821785525050505050509050019150506040518091039020915061071f8284611340565b9050600260009054906101000a900473ffffffffffffffffffffffffffffffffffffffff1673ffffffffffffffffffffffffffffffffffffffff168173ffffffffffffffffffffffffffffffffffffffff161415151561077e57600080fd5b85600460008973ffffffffffffffffffffffffffffffffffffffff1673ffffffffffffffffffffffffffffffffffffffff1681526020019081526020016000208190555083600460008773ffffffffffffffffffffffffffffffffffffffff1673ffffffffffffffffffffffffffffffffffffffff168152602001908152602001600020819055506000809054906101000a900473ffffffffffffffffffffffffffffffffffffffff1673ffffffffffffffffffffffffffffffffffffffff163373ffffffffffffffffffffffffffffffffffffffff161480156108af5750600260009054906101000a900473ffffffffffffffffffffffffffffffffffffffff1673ffffffffffffffffffffffffffffffffffffffff163373ffffffffffffffffffffffffffffffffffffffff16145b1561091c57600160009054906101000a900473ffffffffffffffffffffffffffffffffffffffff16600260006101000a81548173ffffffffffffffffffffffffffffffffffffffff021916908373ffffffffffffffffffffffffffffffffffffffff160217905550610a2f565b600160009054906101000a900473ffffffffffffffffffffffffffffffffffffffff1673ffffffffffffffffffffffffffffffffffffffff163373ffffffffffffffffffffffffffffffffffffffff161480156109c65750600260009054906101000a900473ffffffffffffffffffffffffffffffffffffffff1673ffffffffffffffffffffffffffffffffffffffff163373ffffffffffffffffffffffffffffffffffffffff16145b15610a2e576000809054906101000a900473ffffffffffffffffffffffffffffffffffffffff16600260006101000a81548173ffffffffffffffffffffffffffffffffffffffff021916908373ffffffffffffffffffffffffffffffffffffffff1602179055505b5b603c42016005819055505050505050505050565b600073ffffffffffffffffffffffffffffffffffffffff166000809054906101000a900473ffffffffffffffffffffffffffffffffffffffff1673ffffffffffffffffffffffffffffffffffffffff16141515610a9f57600080fd5b336000806101000a81548173ffffffffffffffffffffffffffffffffffffffff021916908373ffffffffffffffffffffffffffffffffffffffff16021790555034600460003373ffffffffffffffffffffffffffffffffffffffff1673ffffffffffffffffffffffffffffffffffffffff16815260200190815260200160002081905550610b3760023461146590919063ffffffff16565b600381905550565b60008060009054906101000a900473ffffffffffffffffffffffffffffffffffffffff1673ffffffffffffffffffffffffffffffffffffffff163373ffffffffffffffffffffffffffffffffffffffff161480610be95750600160009054906101000a900473ffffffffffffffffffffffffffffffffffffffff1673ffffffffffffffffffffffffffffffffffffffff163373ffffffffffffffffffffffffffffffffffffffff16145b1515610bf457600080fd5b60055442111515610c0457600080fd5b6000600460003373ffffffffffffffffffffffffffffffffffffffff1673ffffffffffffffffffffffffffffffffffffffff16815260200190815260200160002054111515610c5257600080fd5b600460003373ffffffffffffffffffffffffffffffffffffffff1673ffffffffffffffffffffffffffffffffffffffff1681526020019081526020016000205490506000600460003373ffffffffffffffffffffffffffffffffffffffff1673ffffffffffffffffffffffffffffffffffffffff168152602001908152602001600020819055503373ffffffffffffffffffffffffffffffffffffffff166108fc829081150290604051600060405180830381858888f19350505050158015610d1f573d6000803e3d6000fd5b5050565b600073ffffffffffffffffffffffffffffffffffffffff166000809054906101000a900473ffffffffffffffffffffffffffffffffffffffff1673ffffffffffffffffffffffffffffffffffffffff1614151515610d8057600080fd5b600460008060009054906101000a900473ffffffffffffffffffffffffffffffffffffffff1673ffffffffffffffffffffffffffffffffffffffff1673ffffffffffffffffffffffffffffffffffffffff1681526020019081526020016000205434141515610dee57600080fd5b33600160006101000a81548173ffffffffffffffffffffffffffffffffffffffff021916908373ffffffffffffffffffffffffffffffffffffffff16021790555034600460003373ffffffffffffffffffffffffffffffffffffffff1673ffffffffffffffffffffffffffffffffffffffff16815260200190815260200160002081905550565b60046020528060005260406000206000915090505481565b6000809054906101000a900473ffffffffffffffffffffffffffffffffffffffff1681565b60035481565b600760009054906101000a900460ff1681565b6000806000809054906101000a900473ffffffffffffffffffffffffffffffffffffffff1673ffffffffffffffffffffffffffffffffffffffff163373ffffffffffffffffffffffffffffffffffffffff161480610f765750600160009054906101000a900473ffffffffffffffffffffffffffffffffffffffff1673ffffffffffffffffffffffffffffffffffffffff163373ffffffffffffffffffffffffffffffffffffffff16145b1515610f8157600080fd5b600760009054906101000a900460ff16151515610f9d57600080fd5b8787878787604051602001808681526020018573ffffffffffffffffffffffffffffffffffffffff1673ffffffffffffffffffffffffffffffffffffffff166c010000000000000000000000000281526014018481526020018373ffffffffffffffffffffffffffffffffffffffff1673ffffffffffffffffffffffffffffffffffffffff166c01000000000000000000000000028152601401828152602001955050505050506040516020818303038152906040526040518082805190602001908083835b6020831015156110885780518252602082019150602081019050602083039250611063565b6001836020036101000a038019825116818451168082178552505050505050905001915050604051809103902091506110c18284611340565b90506110d6848761131f90919063ffffffff16565b6003541415156110e557600080fd5b6000809054906101000a900473ffffffffffffffffffffffffffffffffffffffff1673ffffffffffffffffffffffffffffffffffffffff163373ffffffffffffffffffffffffffffffffffffffff1614156111a257600160009054906101000a900473ffffffffffffffffffffffffffffffffffffffff16600260006101000a81548173ffffffffffffffffffffffffffffffffffffffff021916908373ffffffffffffffffffffffffffffffffffffffff160217905550611205565b6000809054906101000a900473ffffffffffffffffffffffffffffffffffffffff16600260006101000a81548173ffffffffffffffffffffffffffffffffffffffff021916908373ffffffffffffffffffffffffffffffffffffffff1602179055505b600260009054906101000a900473ffffffffffffffffffffffffffffffffffffffff1673ffffffffffffffffffffffffffffffffffffffff168173ffffffffffffffffffffffffffffffffffffffff1614151561126157600080fd5b603c420160058190555085600460008973ffffffffffffffffffffffffffffffffffffffff1673ffffffffffffffffffffffffffffffffffffffff1681526020019081526020016000208190555083600460008773ffffffffffffffffffffffffffffffffffffffff1673ffffffffffffffffffffffffffffffffffffffff16815260200190815260200160002081905550876006819055506001600760006101000a81548160ff0219169083151502179055505050505050505050565b600080828401905083811015151561133657600080fd5b8091505092915050565b600073__ECTools_______________________________63380388f184846040518363ffffffff167c010000000000000000000000000000000000000000000000000000000002815260040180836000191660001916815260200180602001828103825283818151815260200191508051906020019080838360005b838110156113d75780820151818401526020810190506113bc565b50505050905090810190601f1680156114045780820380516001836020036101000a031916815260200191505b50935050505060206040518083038186803b15801561142257600080fd5b505af4158015611436573d6000803e3d6000fd5b505050506040513d602081101561144c57600080fd5b8101908080519060200190929190505050905092915050565b600080600084141561147a576000915061149c565b828402905082848281151561148b57fe5b0414151561149857600080fd5b8091505b50929150505600a165627a7a723058207b799869ff8a374f3b9ab767bd39f1e8bc7bab6f8c0cbdaf580e8049c817628d0029",
  "source": "pragma solidity ^0.4.24;\n\nimport \"openzeppelin-solidity/contracts/math/SafeMath.sol\";\nimport  \"./lib/ECTools.sol\";\n\n\ncontract RSP {\n\n    using SafeMath for uint256;\n\n    address public playerOne;\n    address public playerTwo;\n\n    address public disputePlayer;\n\n    uint256 public deposit;\n\n    mapping(address => uint) public addressToPrize;\n\n    uint256 public endTime;\n    uint256 public highestStateNonce;\n\n    bool public dispute;\n\n    modifier onlyPlayer() {\n        require(msg.sender == playerOne || msg.sender == playerTwo);\n        _;\n    }\n\n    modifier onlyWithinTimeLimits() {\n        require(now <= endTime);\n        _;\n    }\n\n    modifier onlyAfterDisputePeriod() {\n        require(now > endTime);\n        _;\n    }\n\n    modifier onlyNotDisputeActive() {\n        require(!dispute);\n        _;\n    }\n\n    modifier onlyDisputeActive() {\n        require(dispute);\n        _;\n    }\n\n    function openChannel() public payable {\n        require(playerOne == address(0));\n        playerOne = msg.sender;\n        addressToPrize[msg.sender] = msg.value;\n        deposit = msg.value.mul(2);\n    }\n\n    function joinChannel() public payable {\n        require(playerOne != address(0));\n        require(msg.value == addressToPrize[playerOne]);\n        playerTwo = msg.sender;\n        addressToPrize[msg.sender] = msg.value;\n    }\n\n    function closeChannel(uint256 _nonce, address plOneAddr, uint256 _playerOnePrise, address plTwoAddr, uint256 _playerTwoPrise, bytes _signedData) public onlyPlayer onlyNotDisputeActive {\n        // TODO: describe why we will need delimiter\n        bytes32 bytes32Message = keccak256(abi.encodePacked(_nonce, plOneAddr, _playerOnePrise, plTwoAddr, _playerTwoPrise));\n        address recoveredSigner = recover(bytes32Message, _signedData);\n\n        require(deposit == _playerOnePrise.add(_playerTwoPrise));\n        if (msg.sender == playerOne) {\n            disputePlayer = playerTwo;\n        } else {\n            disputePlayer = playerOne;\n        }\n\n        require(recoveredSigner == disputePlayer);\n\n        endTime = now + 1 minutes;\n\n        addressToPrize[plOneAddr] = _playerOnePrise;\n        addressToPrize[plTwoAddr] = _playerTwoPrise;\n        highestStateNonce = _nonce;\n\n        dispute = true;\n    }\n\n    function closeChannelDispute(uint256 _nonce, address plOneAddr, uint256 _playerOnePrise, address plTwoAddr, uint256 _playerTwoPrise, bytes _signedData) public onlyPlayer onlyWithinTimeLimits onlyDisputeActive {\n        require(_nonce > highestStateNonce);\n        require(deposit == _playerOnePrise.add(_playerTwoPrise));\n\n        bytes32 bytes32Message = keccak256(abi.encodePacked(_nonce, plOneAddr, _playerOnePrise, plTwoAddr, _playerTwoPrise));\n        address recoveredSigner = recover(bytes32Message, _signedData);\n\n        require(recoveredSigner != disputePlayer);\n\n        addressToPrize[plOneAddr] = _playerOnePrise;\n        addressToPrize[plTwoAddr] = _playerTwoPrise;\n\n        if (msg.sender == playerOne && msg.sender == disputePlayer) {\n            disputePlayer = playerTwo;\n        } else if (msg.sender == playerTwo && msg.sender == disputePlayer) {\n            disputePlayer = playerOne;\n        }\n\n        endTime = now + 1 minutes;\n    }\n\n    // TODO: closeChannelDispute within next Game\n\n    function payPrizes() public view onlyPlayer onlyAfterDisputePeriod {\n        require(addressToPrize[msg.sender] > 0);\n        uint priseForPlayer = addressToPrize[msg.sender];\n        addressToPrize[msg.sender] = 0;\n        msg.sender.transfer(priseForPlayer);\n    }\n\n    function recover(bytes32 _hash, bytes _signedDataByPlayer) internal pure returns (address) {\n        return ECTools.prefixedRecover(_hash, _signedDataByPlayer);\n    }\n\n}\n",
  "sourcePath": "/Users/ventsislav/Documents/test/state-channel/contracts/RSP.sol",
  "compiler": {
    "name": "solc",
    "version": "0.4.25+commit.59dbf8f1.Emscripten.clang"
  },
  "schemaVersion": "0.9.8",
  "updatedAt": "2018-11-29T14:04:13.425Z"
}