{
  "contractName": "Billboard",
  "abi": [
    {
      "constant": true,
      "inputs": [
        {
          "name": "",
          "type": "uint256"
        }
      ],
      "name": "historyOfOwners",
      "outputs": [
        {
          "name": "",
          "type": "address"
        }
      ],
      "payable": false,
      "stateMutability": "view",
      "type": "function"
    },
    {
      "constant": true,
      "inputs": [],
      "name": "slogan",
      "outputs": [
        {
          "name": "",
          "type": "string"
        }
      ],
      "payable": false,
      "stateMutability": "view",
      "type": "function"
    },
    {
      "constant": true,
      "inputs": [],
      "name": "priceOracle",
      "outputs": [
        {
          "name": "",
          "type": "address"
        }
      ],
      "payable": false,
      "stateMutability": "view",
      "type": "function"
    },
    {
      "constant": true,
      "inputs": [],
      "name": "billboardOwner",
      "outputs": [
        {
          "name": "",
          "type": "address"
        }
      ],
      "payable": false,
      "stateMutability": "view",
      "type": "function"
    },
    {
      "constant": true,
      "inputs": [],
      "name": "owner",
      "outputs": [
        {
          "name": "",
          "type": "address"
        }
      ],
      "payable": false,
      "stateMutability": "view",
      "type": "function"
    },
    {
      "constant": true,
      "inputs": [],
      "name": "price",
      "outputs": [
        {
          "name": "",
          "type": "uint256"
        }
      ],
      "payable": false,
      "stateMutability": "view",
      "type": "function"
    },
    {
      "constant": true,
      "inputs": [
        {
          "name": "",
          "type": "address"
        }
      ],
      "name": "moneySpent",
      "outputs": [
        {
          "name": "",
          "type": "uint256"
        }
      ],
      "payable": false,
      "stateMutability": "view",
      "type": "function"
    },
    {
      "inputs": [
        {
          "name": "_oracleAddress",
          "type": "address"
        },
        {
          "name": "_slogan",
          "type": "string"
        }
      ],
      "payable": false,
      "stateMutability": "nonpayable",
      "type": "constructor"
    },
    {
      "anonymous": false,
      "inputs": [
        {
          "indexed": false,
          "name": "buyer",
          "type": "address"
        },
        {
          "indexed": false,
          "name": "paied",
          "type": "uint256"
        },
        {
          "indexed": false,
          "name": "slogan",
          "type": "string"
        }
      ],
      "name": "LogBillboardBought",
      "type": "event"
    },
    {
      "anonymous": false,
      "inputs": [
        {
          "indexed": false,
          "name": "amount",
          "type": "uint256"
        },
        {
          "indexed": false,
          "name": "timestamp",
          "type": "uint256"
        }
      ],
      "name": "LogWithdrawal",
      "type": "event"
    },
    {
      "constant": false,
      "inputs": [
        {
          "name": "newSlogan",
          "type": "string"
        }
      ],
      "name": "buy",
      "outputs": [],
      "payable": true,
      "stateMutability": "payable",
      "type": "function"
    },
    {
      "constant": false,
      "inputs": [
        {
          "name": "newPrice",
          "type": "uint256"
        }
      ],
      "name": "setPrice",
      "outputs": [],
      "payable": false,
      "stateMutability": "nonpayable",
      "type": "function"
    },
    {
      "constant": true,
      "inputs": [],
      "name": "getPriceInUSD",
      "outputs": [
        {
          "name": "",
          "type": "uint256"
        }
      ],
      "payable": false,
      "stateMutability": "view",
      "type": "function"
    },
    {
      "constant": true,
      "inputs": [],
      "name": "moneySpentInUSD",
      "outputs": [
        {
          "name": "",
          "type": "uint256"
        }
      ],
      "payable": false,
      "stateMutability": "view",
      "type": "function"
    },
    {
      "constant": true,
      "inputs": [],
      "name": "historyLength",
      "outputs": [
        {
          "name": "",
          "type": "uint256"
        }
      ],
      "payable": false,
      "stateMutability": "view",
      "type": "function"
    },
    {
      "constant": false,
      "inputs": [],
      "name": "withdraw",
      "outputs": [],
      "payable": false,
      "stateMutability": "nonpayable",
      "type": "function"
    }
  ],
  "bytecode": "0x6080604052670de0b6b3a764000060015534801561001c57600080fd5b50604051610c40380380610c40833981016040528051602082015160008054600160a060020a03191633179055909101600160a060020a038216151561006157600080fd5b60068054600160a060020a031916600160a060020a038416179055805161008f906005906020840190610097565b505050610132565b828054600181600116156101000203166002900490600052602060002090601f016020900481019282601f106100d857805160ff1916838001178555610105565b82800160010185558215610105579182015b828111156101055782518255916020019190600101906100ea565b50610111929150610115565b5090565b61012f91905b80821115610111576000815560010161011b565b90565b610aff806101416000396000f3006080604052600436106100c45763ffffffff7c01000000000000000000000000000000000000000000000000000000006000350416631281161c81146100c957806324e5eeaa1461010a578063258b7ea7146101945780632630c12f146101bb57806329022519146101d05780633ccfd60b146101e5578063492cc769146101fc5780638da5cb5b1461024857806391b7f5ed1461025d578063a035b1fe14610275578063b4fce4f41461028a578063e1aa6036146102b8578063f1279c8c146102cd575b600080fd5b3480156100d557600080fd5b506100e16004356102e2565b6040805173ffffffffffffffffffffffffffffffffffffffff9092168252519081900360200190f35b34801561011657600080fd5b5061011f610317565b6040805160208082528351818301528351919283929083019185019080838360005b83811015610159578181015183820152602001610141565b50505050905090810190601f1680156101865780820380516001836020036101000a031916815260200191505b509250505060405180910390f35b3480156101a057600080fd5b506101a96103a5565b60408051918252519081900360200190f35b3480156101c757600080fd5b506100e1610475565b3480156101dc57600080fd5b506100e1610491565b3480156101f157600080fd5b506101fa6104ad565b005b6040805160206004803580820135601f81018490048402850184019095528484526101fa9436949293602493928401919081908401838280828437509497506106529650505050505050565b34801561025457600080fd5b506100e1610829565b34801561026957600080fd5b506101fa600435610845565b34801561028157600080fd5b506101a9610967565b34801561029657600080fd5b506101a973ffffffffffffffffffffffffffffffffffffffff6004351661096d565b3480156102c457600080fd5b506101a961097f565b3480156102d957600080fd5b506101a9610a3e565b60038054829081106102f057fe5b60009182526020909120015473ffffffffffffffffffffffffffffffffffffffff16905081565b6005805460408051602060026001851615610100026000190190941693909304601f8101849004840282018401909252818152929183018282801561039d5780601f106103725761010080835404028352916020019161039d565b820191906000526020600020905b81548152906001019060200180831161038057829003601f168201915b505050505081565b600080600660009054906101000a900473ffffffffffffffffffffffffffffffffffffffff1673ffffffffffffffffffffffffffffffffffffffff1663891a8b856040518163ffffffff167c0100000000000000000000000000000000000000000000000000000000028152600401602060405180830381600087803b15801561042e57600080fd5b505af1158015610442573d6000803e3d6000fd5b505050506040513d602081101561045857600080fd5b5051336000908152600460205260409020548102925090505b5090565b60065473ffffffffffffffffffffffffffffffffffffffff1681565b60025473ffffffffffffffffffffffffffffffffffffffff1681565b6000805473ffffffffffffffffffffffffffffffffffffffff16331461055a57604080517f08c379a000000000000000000000000000000000000000000000000000000000815260206004820152602a60248201527f54686973207472616e73616374696f6e20776173206e6f742073656e7420627960448201527f20746865206f776e657200000000000000000000000000000000000000000000606482015290519081900360840190fd5b503031600081116105cc57604080517f08c379a000000000000000000000000000000000000000000000000000000000815260206004820152601560248201527f436f6e74726163742062616c616e636520697320300000000000000000000000604482015290519081900360640190fd5b6000805460405173ffffffffffffffffffffffffffffffffffffffff90911691303180156108fc02929091818181858888f19350505050158015610614573d6000803e3d6000fd5b506040805182815242602082015281517fd13a5da6bc8ac80614509e23ebe361a43965fa427ce0bcb49e6926016ee51ff0929181900390910190a150565b6001543410156106c357604080517f08c379a000000000000000000000000000000000000000000000000000000000815260206004820152601a60248201527f5468652065746865722073656e742077617320746f6f206c6f77000000000000604482015290519081900360640190fd5b60028054337fffffffffffffffffffffffff0000000000000000000000000000000000000000918216811790925560038054600181019091557fc2575a0e9e593c00f959f8c92f12db2869c3395a3b0502d05e2516446f71f85b01805490911682179055600090815260046020908152604090912080543401905581516107509160059190840190610a45565b507f858aeed554e1ed78a7ef34d723723d2650bf803c94371cb16520a8f0eed11e48333483604051808473ffffffffffffffffffffffffffffffffffffffff1673ffffffffffffffffffffffffffffffffffffffff16815260200183815260200180602001828103825283818151815260200191508051906020019080838360005b838110156107ea5781810151838201526020016107d2565b50505050905090810190601f1680156108175780820380516001836020036101000a031916815260200191505b5094505050505060405180910390a150565b60005473ffffffffffffffffffffffffffffffffffffffff1681565b60005473ffffffffffffffffffffffffffffffffffffffff1633146108f157604080517f08c379a000000000000000000000000000000000000000000000000000000000815260206004820152602a60248201527f54686973207472616e73616374696f6e20776173206e6f742073656e7420627960448201527f20746865206f776e657200000000000000000000000000000000000000000000606482015290519081900360840190fd5b806000811161096157604080517f08c379a000000000000000000000000000000000000000000000000000000000815260206004820152601560248201527f5468652070726963652063616e6e6f7420626520300000000000000000000000604482015290519081900360640190fd5b50600155565b60015481565b60046020526000908152604090205481565b600080600660009054906101000a900473ffffffffffffffffffffffffffffffffffffffff1673ffffffffffffffffffffffffffffffffffffffff1663891a8b856040518163ffffffff167c0100000000000000000000000000000000000000000000000000000000028152600401602060405180830381600087803b158015610a0857600080fd5b505af1158015610a1c573d6000803e3d6000fd5b505050506040513d6020811015610a3257600080fd5b50516001540292915050565b6003545b90565b828054600181600116156101000203166002900490600052602060002090601f016020900481019282601f10610a8657805160ff1916838001178555610ab3565b82800160010185558215610ab3579182015b82811115610ab3578251825591602001919060010190610a98565b5061047192610a429250905b808211156104715760008155600101610abf5600a165627a7a723058202cd4111e3a85efb3a5be638c3fcf93f3726a61ef82c015960d4b8835c8e879210029",
  "source": "pragma solidity ^0.4.23;\nimport \"./BillboardOracle.sol\";\n\n\ncontract Ownable {\n\n    address public owner;\n\n    modifier onlyOwner() {\n        require(msg.sender == owner, \"This transaction was not sent by the owner\");\n        _;\n    }\n\n    constructor() public {\n        owner = msg.sender;\n    }\n\n}\n\ncontract Billboard is Ownable {\n\n    uint256 public price = 1 ether;\n    address public billboardOwner;\n    address[] public historyOfOwners;\n    mapping(address => uint256) public moneySpent;\n    string public slogan;\n    BillboardOracle public priceOracle;\n\n    /**\n     * events\n     */\n\n    event LogBillboardBought(address buyer, uint256 paied, string slogan);\n    event LogWithdrawal(uint256 amount, uint256 timestamp);\n\n    /**\n     * modifiers\n     */\n\n    modifier onlyPositive(uint256 newPrice) {\n        require(newPrice > 0, \"The price cannot be 0\");\n        _;\n    }\n\n    constructor(address _oracleAddress, string _slogan) {\n        require(_oracleAddress != address(0));\n        priceOracle = BillboardOracle(_oracleAddress);\n        slogan = _slogan;\n    }\n\n    /**\n     * functions\n     */\n\n    function buy(string newSlogan) public payable {\n        require(msg.value >= price, \"The ether sent was too low\");\n\n        billboardOwner = msg.sender;\n        historyOfOwners.push(msg.sender);\n        moneySpent[msg.sender] += msg.value;\n        slogan = newSlogan;\n\n        emit LogBillboardBought(msg.sender, msg.value, newSlogan);\n    }\n\n    function setPrice(uint256 newPrice) public onlyOwner onlyPositive(newPrice) {\n        price = newPrice;\n    }\n\n    function getPriceInUSD() public view returns(uint256){\n        uint256 priceInUSD = priceOracle.ethPriceInUSD();\n        return priceInUSD*price;\n    } \n\n    function moneySpentInUSD() public view returns(uint256) {\n        uint256 priceInUSD = priceOracle.ethPriceInUSD();\n        return moneySpent[msg.sender] * priceInUSD;\n    }\n\n    function historyLength() public view returns (uint256) {\n        return historyOfOwners.length;\n    }\n\n    function withdraw() public onlyOwner {\n        uint256 balance = address(this).balance;\n\n        require(balance > 0, \"Contract balance is 0\");\n\n        owner.transfer(address(this).balance);\n\n        emit LogWithdrawal(balance, now);\n    }\n\n}",
  "sourcePath": "/Users/martingrigorov/Documents/Lectures/Contracts/contracts/Billboard.sol",
  "compiler": {
    "name": "solc",
    "version": "0.4.25+commit.59dbf8f1.Emscripten.clang"
  },
  "schemaVersion": "0.9.6",
  "updatedAt": "2018-11-18T15:54:15.679Z"
}