{
  "contractName": "BillboardOracle",
  "abi": [
    {
      "constant": true,
      "inputs": [],
      "name": "lastEthPriceInUSD",
      "outputs": [
        {
          "name": "",
          "type": "uint256"
        }
      ],
      "payable": false,
      "stateMutability": "view",
      "type": "function"
    },
    {
      "constant": true,
      "inputs": [],
      "name": "ethPriceInUSD",
      "outputs": [
        {
          "name": "",
          "type": "uint256"
        }
      ],
      "payable": false,
      "stateMutability": "view",
      "type": "function"
    },
    {
      "inputs": [
        {
          "name": "_ethPriceInUSD",
          "type": "uint256"
        }
      ],
      "payable": false,
      "stateMutability": "nonpayable",
      "type": "constructor"
    },
    {
      "anonymous": false,
      "inputs": [
        {
          "indexed": false,
          "name": "_oldPrice",
          "type": "uint256"
        },
        {
          "indexed": false,
          "name": "_newPrice",
          "type": "uint256"
        }
      ],
      "name": "RateChanged",
      "type": "event"
    },
    {
      "constant": false,
      "inputs": [
        {
          "name": "_newEthPrice",
          "type": "uint256"
        }
      ],
      "name": "setPrice",
      "outputs": [],
      "payable": false,
      "stateMutability": "nonpayable",
      "type": "function"
    }
  ],
  "bytecode": "0x608060405234801561001057600080fd5b5060405160208061022d8339810180604052810190808051906020019092919050505080600081905550506101e38061004a6000396000f300608060405260043610610057576000357c0100000000000000000000000000000000000000000000000000000000900463ffffffff168063629a9af71461005c578063891a8b851461008757806391b7f5ed146100b2575b600080fd5b34801561006857600080fd5b506100716100df565b6040518082815260200191505060405180910390f35b34801561009357600080fd5b5061009c6100e5565b6040518082815260200191505060405180910390f35b3480156100be57600080fd5b506100dd600480360381019080803590602001909291905050506100eb565b005b60015481565b60005481565b600081111515610163576040517f08c379a000000000000000000000000000000000000000000000000000000000815260040180806020018281038252601b8152602001807f496e76616c6964206574685072696365496e5553442076616c7565000000000081525060200191505060405180910390fd5b600054600181905550806000819055507f4ac9052a820bf4f8c02d7588587cae835573b5b99ea7ad4ca002f17f319f718660015482604051808381526020018281526020019250505060405180910390a1505600a165627a7a72305820113ec7bb7ea151adb5484db7e90c1391fb0737bfedde8d4ceeca39a909f1fecc0029",
  "source": "pragma solidity ^0.4.24;\n\ncontract BillboardOracle {\n\n    uint256 public ethPriceInUSD;\n\tuint256 public lastEthPriceInUSD;\n\n    event RateChanged(uint256 _oldPrice, uint256 _newPrice);\n\n    constructor(uint256 _ethPriceInUSD) {\n        ethPriceInUSD = _ethPriceInUSD;\n    }\n\n    function setPrice(uint256 _newEthPrice) public  {\n        require(_newEthPrice > 0, \"Invalid ethPriceInUSD value\");\n\n        lastEthPriceInUSD = ethPriceInUSD;\n        ethPriceInUSD = _newEthPrice;\n\n        emit RateChanged(lastEthPriceInUSD, _newEthPrice);\n    }\n\n}\n\n",
  "sourcePath": "/Users/martingrigorov/Documents/Lectures/Contracts/contracts/BillboardOracle.sol",
  "compiler": {
    "name": "solc",
    "version": "0.4.25+commit.59dbf8f1.Emscripten.clang"
  },
  "schemaVersion": "0.9.6",
  "updatedAt": "2018-11-18T19:56:04.255Z"
}