{
  "contractName": "Billboard",
  "abi": [
    {
      "constant": true,
      "inputs": [
        {
          "name": "",
          "type": "uint256"
        }
      ],
      "name": "historyOfOwners",
      "outputs": [
        {
          "name": "",
          "type": "address"
        }
      ],
      "payable": false,
      "stateMutability": "view",
      "type": "function"
    },
    {
      "constant": true,
      "inputs": [],
      "name": "slogan",
      "outputs": [
        {
          "name": "",
          "type": "string"
        }
      ],
      "payable": false,
      "stateMutability": "view",
      "type": "function"
    },
    {
      "constant": true,
      "inputs": [],
      "name": "priceOracle",
      "outputs": [
        {
          "name": "",
          "type": "address"
        }
      ],
      "payable": false,
      "stateMutability": "view",
      "type": "function"
    },
    {
      "constant": true,
      "inputs": [],
      "name": "billboardOwner",
      "outputs": [
        {
          "name": "",
          "type": "address"
        }
      ],
      "payable": false,
      "stateMutability": "view",
      "type": "function"
    },
    {
      "constant": true,
      "inputs": [],
      "name": "owner",
      "outputs": [
        {
          "name": "",
          "type": "address"
        }
      ],
      "payable": false,
      "stateMutability": "view",
      "type": "function"
    },
    {
      "constant": true,
      "inputs": [],
      "name": "price",
      "outputs": [
        {
          "name": "",
          "type": "uint256"
        }
      ],
      "payable": false,
      "stateMutability": "view",
      "type": "function"
    },
    {
      "constant": true,
      "inputs": [
        {
          "name": "",
          "type": "address"
        }
      ],
      "name": "moneySpent",
      "outputs": [
        {
          "name": "",
          "type": "uint256"
        }
      ],
      "payable": false,
      "stateMutability": "view",
      "type": "function"
    },
    {
      "inputs": [
        {
          "name": "_oracleAddress",
          "type": "address"
        },
        {
          "name": "_slogan",
          "type": "string"
        }
      ],
      "payable": false,
      "stateMutability": "nonpayable",
      "type": "constructor"
    },
    {
      "anonymous": false,
      "inputs": [
        {
          "indexed": false,
          "name": "buyer",
          "type": "address"
        },
        {
          "indexed": false,
          "name": "paied",
          "type": "uint256"
        },
        {
          "indexed": false,
          "name": "slogan",
          "type": "string"
        }
      ],
      "name": "LogBillboardBought",
      "type": "event"
    },
    {
      "anonymous": false,
      "inputs": [
        {
          "indexed": false,
          "name": "amount",
          "type": "uint256"
        },
        {
          "indexed": false,
          "name": "timestamp",
          "type": "uint256"
        }
      ],
      "name": "LogWithdrawal",
      "type": "event"
    },
    {
      "constant": false,
      "inputs": [
        {
          "name": "newSlogan",
          "type": "string"
        }
      ],
      "name": "buy",
      "outputs": [],
      "payable": true,
      "stateMutability": "payable",
      "type": "function"
    },
    {
      "constant": false,
      "inputs": [
        {
          "name": "newPrice",
          "type": "uint256"
        }
      ],
      "name": "setPrice",
      "outputs": [],
      "payable": false,
      "stateMutability": "nonpayable",
      "type": "function"
    },
    {
      "constant": true,
      "inputs": [],
      "name": "getPriceInUSD",
      "outputs": [
        {
          "name": "",
          "type": "uint256"
        }
      ],
      "payable": false,
      "stateMutability": "view",
      "type": "function"
    },
    {
      "constant": true,
      "inputs": [],
      "name": "moneySpentInUSD",
      "outputs": [
        {
          "name": "",
          "type": "uint256"
        }
      ],
      "payable": false,
      "stateMutability": "view",
      "type": "function"
    },
    {
      "constant": true,
      "inputs": [],
      "name": "historyLength",
      "outputs": [
        {
          "name": "",
          "type": "uint256"
        }
      ],
      "payable": false,
      "stateMutability": "view",
      "type": "function"
    },
    {
      "constant": false,
      "inputs": [],
      "name": "withdraw",
      "outputs": [],
      "payable": false,
      "stateMutability": "nonpayable",
      "type": "function"
    }
  ],
  "bytecode": "0x6080604052670de0b6b3a764000060015534801561001c57600080fd5b5060405161107c38038061107c8339810180604052810190808051906020019092919080518201929190505050336000806101000a81548173ffffffffffffffffffffffffffffffffffffffff021916908373ffffffffffffffffffffffffffffffffffffffff160217905550600073ffffffffffffffffffffffffffffffffffffffff168273ffffffffffffffffffffffffffffffffffffffff16141515156100c557600080fd5b81600660006101000a81548173ffffffffffffffffffffffffffffffffffffffff021916908373ffffffffffffffffffffffffffffffffffffffff160217905550806005908051906020019061011c929190610124565b5050506101c9565b828054600181600116156101000203166002900490600052602060002090601f016020900481019282601f1061016557805160ff1916838001178555610193565b82800160010185558215610193579182015b82811115610192578251825591602001919060010190610177565b5b5090506101a091906101a4565b5090565b6101c691905b808211156101c25760008160009055506001016101aa565b5090565b90565b610ea4806101d86000396000f3006080604052600436106100c5576000357c0100000000000000000000000000000000000000000000000000000000900463ffffffff1680631281161c146100ca57806324e5eeaa14610137578063258b7ea7146101c75780632630c12f146101f257806329022519146102495780633ccfd60b146102a0578063492cc769146102b75780638da5cb5b1461031357806391b7f5ed1461036a578063a035b1fe14610397578063b4fce4f4146103c2578063e1aa603614610419578063f1279c8c14610444575b600080fd5b3480156100d657600080fd5b506100f56004803603810190808035906020019092919050505061046f565b604051808273ffffffffffffffffffffffffffffffffffffffff1673ffffffffffffffffffffffffffffffffffffffff16815260200191505060405180910390f35b34801561014357600080fd5b5061014c6104ad565b6040518080602001828103825283818151815260200191508051906020019080838360005b8381101561018c578082015181840152602081019050610171565b50505050905090810190601f1680156101b95780820380516001836020036101000a031916815260200191505b509250505060405180910390f35b3480156101d357600080fd5b506101dc61054b565b6040518082815260200191505060405180910390f35b3480156101fe57600080fd5b50610207610659565b604051808273ffffffffffffffffffffffffffffffffffffffff1673ffffffffffffffffffffffffffffffffffffffff16815260200191505060405180910390f35b34801561025557600080fd5b5061025e61067f565b604051808273ffffffffffffffffffffffffffffffffffffffff1673ffffffffffffffffffffffffffffffffffffffff16815260200191505060405180910390f35b3480156102ac57600080fd5b506102b56106a5565b005b610311600480360381019080803590602001908201803590602001908080601f01602080910402602001604051908101604052809392919081815260200183838082843782019150505050505091929192905050506108e4565b005b34801561031f57600080fd5b50610328610b44565b604051808273ffffffffffffffffffffffffffffffffffffffff1673ffffffffffffffffffffffffffffffffffffffff16815260200191505060405180910390f35b34801561037657600080fd5b5061039560048036038101908080359060200190929190505050610b69565b005b3480156103a357600080fd5b506103ac610cd7565b6040518082815260200191505060405180910390f35b3480156103ce57600080fd5b50610403600480360381019080803573ffffffffffffffffffffffffffffffffffffffff169060200190929190505050610cdd565b6040518082815260200191505060405180910390f35b34801561042557600080fd5b5061042e610cf5565b6040518082815260200191505060405180910390f35b34801561045057600080fd5b50610459610dc6565b6040518082815260200191505060405180910390f35b60038181548110151561047e57fe5b906000526020600020016000915054906101000a900473ffffffffffffffffffffffffffffffffffffffff1681565b60058054600181600116156101000203166002900480601f0160208091040260200160405190810160405280929190818152602001828054600181600116156101000203166002900480156105435780601f1061051857610100808354040283529160200191610543565b820191906000526020600020905b81548152906001019060200180831161052657829003601f168201915b505050505081565b600080600660009054906101000a900473ffffffffffffffffffffffffffffffffffffffff1673ffffffffffffffffffffffffffffffffffffffff1663891a8b856040518163ffffffff167c0100000000000000000000000000000000000000000000000000000000028152600401602060405180830381600087803b1580156105d457600080fd5b505af11580156105e8573d6000803e3d6000fd5b505050506040513d60208110156105fe57600080fd5b8101908080519060200190929190505050905080600460003373ffffffffffffffffffffffffffffffffffffffff1673ffffffffffffffffffffffffffffffffffffffff168152602001908152602001600020540291505090565b600660009054906101000a900473ffffffffffffffffffffffffffffffffffffffff1681565b600260009054906101000a900473ffffffffffffffffffffffffffffffffffffffff1681565b60008060009054906101000a900473ffffffffffffffffffffffffffffffffffffffff1673ffffffffffffffffffffffffffffffffffffffff163373ffffffffffffffffffffffffffffffffffffffff16141515610791576040517f08c379a000000000000000000000000000000000000000000000000000000000815260040180806020018281038252602a8152602001807f54686973207472616e73616374696f6e20776173206e6f742073656e7420627981526020017f20746865206f776e65720000000000000000000000000000000000000000000081525060400191505060405180910390fd5b3073ffffffffffffffffffffffffffffffffffffffff16319050600081111515610823576040517f08c379a00000000000000000000000000000000000000000000000000000000081526004018080602001828103825260158152602001807f436f6e74726163742062616c616e63652069732030000000000000000000000081525060200191505060405180910390fd5b6000809054906101000a900473ffffffffffffffffffffffffffffffffffffffff1673ffffffffffffffffffffffffffffffffffffffff166108fc3073ffffffffffffffffffffffffffffffffffffffff16319081150290604051600060405180830381858888f193505050501580156108a1573d6000803e3d6000fd5b507fd13a5da6bc8ac80614509e23ebe361a43965fa427ce0bcb49e6926016ee51ff08142604051808381526020018281526020019250505060405180910390a150565b600154341015151561095e576040517f08c379a000000000000000000000000000000000000000000000000000000000815260040180806020018281038252601a8152602001807f5468652065746865722073656e742077617320746f6f206c6f7700000000000081525060200191505060405180910390fd5b33600260006101000a81548173ffffffffffffffffffffffffffffffffffffffff021916908373ffffffffffffffffffffffffffffffffffffffff16021790555060033390806001815401808255809150509060018203906000526020600020016000909192909190916101000a81548173ffffffffffffffffffffffffffffffffffffffff021916908373ffffffffffffffffffffffffffffffffffffffff1602179055505034600460003373ffffffffffffffffffffffffffffffffffffffff1673ffffffffffffffffffffffffffffffffffffffff168152602001908152602001600020600082825401925050819055508060059080519060200190610a68929190610dd3565b507f858aeed554e1ed78a7ef34d723723d2650bf803c94371cb16520a8f0eed11e48333483604051808473ffffffffffffffffffffffffffffffffffffffff1673ffffffffffffffffffffffffffffffffffffffff16815260200183815260200180602001828103825283818151815260200191508051906020019080838360005b83811015610b05578082015181840152602081019050610aea565b50505050905090810190601f168015610b325780820380516001836020036101000a031916815260200191505b5094505050505060405180910390a150565b6000809054906101000a900473ffffffffffffffffffffffffffffffffffffffff1681565b6000809054906101000a900473ffffffffffffffffffffffffffffffffffffffff1673ffffffffffffffffffffffffffffffffffffffff163373ffffffffffffffffffffffffffffffffffffffff16141515610c53576040517f08c379a000000000000000000000000000000000000000000000000000000000815260040180806020018281038252602a8152602001807f54686973207472616e73616374696f6e20776173206e6f742073656e7420627981526020017f20746865206f776e65720000000000000000000000000000000000000000000081525060400191505060405180910390fd5b80600081111515610ccc576040517f08c379a00000000000000000000000000000000000000000000000000000000081526004018080602001828103825260158152602001807f5468652070726963652063616e6e6f742062652030000000000000000000000081525060200191505060405180910390fd5b816001819055505050565b60015481565b60046020528060005260406000206000915090505481565b600080600660009054906101000a900473ffffffffffffffffffffffffffffffffffffffff1673ffffffffffffffffffffffffffffffffffffffff1663891a8b856040518163ffffffff167c0100000000000000000000000000000000000000000000000000000000028152600401602060405180830381600087803b158015610d7e57600080fd5b505af1158015610d92573d6000803e3d6000fd5b505050506040513d6020811015610da857600080fd5b81019080805190602001909291905050509050600154810291505090565b6000600380549050905090565b828054600181600116156101000203166002900490600052602060002090601f016020900481019282601f10610e1457805160ff1916838001178555610e42565b82800160010185558215610e42579182015b82811115610e41578251825591602001919060010190610e26565b5b509050610e4f9190610e53565b5090565b610e7591905b80821115610e71576000816000905550600101610e59565b5090565b905600a165627a7a723058200b35e27e96e3cb2619a551fff69424431f3bf70fb2da8890ca1cbfe98357d5900029",
  "source": "pragma solidity ^0.4.23;\nimport \"./BillboardOracle.sol\";\n\n\ncontract Ownable {\n\n    address public owner;\n\n    modifier onlyOwner() {\n        require(msg.sender == owner, \"This transaction was not sent by the owner\");\n        _;\n    }\n\n    constructor() public {\n        owner = msg.sender;\n    }\n\n}\n\ncontract Billboard is Ownable {\n\n    uint256 public price = 1 ether;\n    address public billboardOwner;\n    address[] public historyOfOwners;\n    mapping(address => uint256) public moneySpent;\n    string public slogan;\n    BillboardOracle public priceOracle;\n\n    /**\n     * events\n     */\n\n    event LogBillboardBought(address buyer, uint256 paied, string slogan);\n    event LogWithdrawal(uint256 amount, uint256 timestamp);\n\n    /**\n     * modifiers\n     */\n\n    modifier onlyPositive(uint256 newPrice) {\n        require(newPrice > 0, \"The price cannot be 0\");\n        _;\n    }\n\n    constructor(address _oracleAddress, string _slogan) {\n        require(_oracleAddress != address(0));\n        priceOracle = BillboardOracle(_oracleAddress);\n        slogan = _slogan;\n    }\n\n    /**\n     * functions\n     */\n\n    function buy(string newSlogan) public payable {\n        require(msg.value >= price, \"The ether sent was too low\");\n\n        billboardOwner = msg.sender;\n        historyOfOwners.push(msg.sender);\n        moneySpent[msg.sender] += msg.value;\n        slogan = newSlogan;\n\n        emit LogBillboardBought(msg.sender, msg.value, newSlogan);\n    }\n\n    function setPrice(uint256 newPrice) public onlyOwner onlyPositive(newPrice) {\n        price = newPrice;\n    }\n\n    function getPriceInUSD() public view returns(uint256){\n        uint256 priceInUSD = priceOracle.ethPriceInUSD();\n        return priceInUSD*price;\n    } \n\n    function moneySpentInUSD() public view returns(uint256) {\n        uint256 priceInUSD = priceOracle.ethPriceInUSD();\n        return moneySpent[msg.sender] * priceInUSD;\n    }\n\n    function historyLength() public view returns (uint256) {\n        return historyOfOwners.length;\n    }\n\n    function withdraw() public onlyOwner {\n        uint256 balance = address(this).balance;\n\n        require(balance > 0, \"Contract balance is 0\");\n\n        owner.transfer(address(this).balance);\n\n        emit LogWithdrawal(balance, now);\n    }\n\n}",
  "sourcePath": "/Users/martingrigorov/Documents/Lectures/Contracts/contracts/Billboard.sol",
  "compiler": {
    "name": "solc",
    "version": "0.4.25+commit.59dbf8f1.Emscripten.clang"
  },
  "schemaVersion": "0.9.6",
  "updatedAt": "2018-11-18T19:56:04.260Z"
}