{
  "contractName": "LimeFactoryString",
  "abi": [
    {
      "constant": true,
      "inputs": [
        {
          "name": "",
          "type": "uint256"
        }
      ],
      "name": "limes",
      "outputs": [
        {
          "name": "name",
          "type": "string"
        },
        {
          "name": "carbohydrates",
          "type": "uint8"
        },
        {
          "name": "fat",
          "type": "uint8"
        },
        {
          "name": "protein",
          "type": "uint8"
        }
      ],
      "payable": false,
      "stateMutability": "view",
      "type": "function"
    },
    {
      "inputs": [
        {
          "name": "_slogan",
          "type": "string"
        },
        {
          "name": "_otherSlogan",
          "type": "string"
        }
      ],
      "payable": false,
      "stateMutability": "nonpayable",
      "type": "constructor"
    },
    {
      "anonymous": false,
      "inputs": [
        {
          "indexed": false,
          "name": "name",
          "type": "string"
        }
      ],
      "name": "FreshLime",
      "type": "event"
    }
  ],
  "bytecode": "0x608060405234801561001057600080fd5b5060405161036338038061036383398101806040528101908080518201929190602001805182019291905050508160009080519060200190610053929190610072565b50806001908051906020019061006a929190610072565b505050610117565b828054600181600116156101000203166002900490600052602060002090601f016020900481019282601f106100b357805160ff19168380011785556100e1565b828001600101855582156100e1579182015b828111156100e05782518255916020019190600101906100c5565b5b5090506100ee91906100f2565b5090565b61011491905b808211156101105760008160009055506001016100f8565b5090565b90565b61023d806101266000396000f300608060405260043610610041576000357c0100000000000000000000000000000000000000000000000000000000900463ffffffff16806321310ecd14610046575b600080fd5b34801561005257600080fd5b5061007160048036038101908080359060200190929190505050610113565b60405180806020018560ff1660ff1681526020018460ff1660ff1681526020018360ff1660ff168152602001828103825286818151815260200191508051906020019080838360005b838110156100d55780820151818401526020810190506100ba565b50505050905090810190601f1680156101025780820380516001836020036101000a031916815260200191505b509550505050505060405180910390f35b60028181548110151561012257fe5b9060005260206000209060020201600091509050806000018054600181600116156101000203166002900480601f0160208091040260200160405190810160405280929190818152602001828054600181600116156101000203166002900480156101ce5780601f106101a3576101008083540402835291602001916101ce565b820191906000526020600020905b8154815290600101906020018083116101b157829003601f168201915b5050505050908060010160009054906101000a900460ff16908060010160019054906101000a900460ff16908060010160029054906101000a900460ff169050845600a165627a7a723058202b9c2a156ce510579d167decf0249adc724e0efeec1ef8888d4953e70e9252930029",
  "source": "pragma solidity ^0.4.24;\n\ncontract LimeFactoryString {\n\n    string slogan;\n    string otherSlogan;\n\n    event FreshLime(string name);\n\n    struct Lime {\n        string name;\n        uint8 carbohydrates;\n        uint8 fat;\n        uint8 protein;\n    }\n\n    Lime[] public limes;\n\n    constructor(string _slogan, string _otherSlogan) public {\n        slogan = _slogan;\n        otherSlogan = _otherSlogan;\n    }\n\n    function createLime(string _name, uint8 _carbohydrates, uint8 _fat, uint8 _protein) internal {\n        limes.push(Lime(_name, _carbohydrates, _fat, _protein));\n        emit FreshLime(_name);\n    }\n}",
  "sourcePath": "/Users/martingrigorov/Documents/Lectures/Contracts/contracts/LimeFactoryString.sol",
  "compiler": {
    "name": "solc",
    "version": "0.4.25+commit.59dbf8f1.Emscripten.clang"
  },
  "schemaVersion": "0.9.6",
  "updatedAt": "2018-11-18T19:56:04.264Z"
}