{
  "contractName": "LimeFactory",
  "abi": [
    {
      "constant": true,
      "inputs": [
        {
          "name": "",
          "type": "uint256"
        }
      ],
      "name": "limes",
      "outputs": [
        {
          "name": "name",
          "type": "string"
        },
        {
          "name": "carbohydrates",
          "type": "uint8"
        },
        {
          "name": "fat",
          "type": "uint8"
        },
        {
          "name": "protein",
          "type": "uint8"
        }
      ],
      "payable": false,
      "stateMutability": "view",
      "type": "function"
    },
    {
      "inputs": [
        {
          "name": "_slogan",
          "type": "bytes32"
        },
        {
          "name": "_otherSlogan",
          "type": "bytes32"
        }
      ],
      "payable": false,
      "stateMutability": "nonpayable",
      "type": "constructor"
    },
    {
      "anonymous": false,
      "inputs": [
        {
          "indexed": false,
          "name": "name",
          "type": "string"
        }
      ],
      "name": "FreshLime",
      "type": "event"
    }
  ],
  "bytecode": "0x608060405234801561001057600080fd5b506040516040806102a1833981018060405281019080805190602001909291908051906020019092919050505081600081600019169055508060018160001916905550505061023d806100646000396000f300608060405260043610610041576000357c0100000000000000000000000000000000000000000000000000000000900463ffffffff16806321310ecd14610046575b600080fd5b34801561005257600080fd5b5061007160048036038101908080359060200190929190505050610113565b60405180806020018560ff1660ff1681526020018460ff1660ff1681526020018360ff1660ff168152602001828103825286818151815260200191508051906020019080838360005b838110156100d55780820151818401526020810190506100ba565b50505050905090810190601f1680156101025780820380516001836020036101000a031916815260200191505b509550505050505060405180910390f35b60028181548110151561012257fe5b9060005260206000209060020201600091509050806000018054600181600116156101000203166002900480601f0160208091040260200160405190810160405280929190818152602001828054600181600116156101000203166002900480156101ce5780601f106101a3576101008083540402835291602001916101ce565b820191906000526020600020905b8154815290600101906020018083116101b157829003601f168201915b5050505050908060010160009054906101000a900460ff16908060010160019054906101000a900460ff16908060010160029054906101000a900460ff169050845600a165627a7a7230582058ab86dc28b626c6f4ea129e12ac198be7376af43e6d5bdf2cde51703288eacb0029",
  "source": "pragma solidity ^0.4.24;\n\ncontract LimeFactory {\n\n    bytes32 slogan;\n    bytes32 otherSlogan;\n\n    event FreshLime(string name);\n\n    struct Lime {\n        string name;\n        uint8 carbohydrates;\n        uint8 fat;\n        uint8 protein;\n    }\n\n    Lime[] public limes;\n\n    constructor(bytes32 _slogan, bytes32 _otherSlogan) public {\n        slogan = _slogan;\n        otherSlogan = _otherSlogan;\n    }\n\n    function createLime(string _name, uint8 _carbohydrates, uint8 _fat, uint8 _protein) internal {\n        limes.push(Lime(_name, _carbohydrates, _fat, _protein));\n        emit FreshLime(_name);\n    }\n}",
  "sourcePath": "/Users/martingrigorov/Documents/Lectures/Contracts/contracts/LimeFactory.sol",
  "compiler": {
    "name": "solc",
    "version": "0.4.25+commit.59dbf8f1.Emscripten.clang"
  },
  "schemaVersion": "0.9.6",
  "updatedAt": "2018-11-18T19:56:04.255Z"
}