{
  "contractName": "LimeLoop",
  "abi": [
    {
      "payable": true,
      "stateMutability": "payable",
      "type": "fallback"
    },
    {
      "constant": false,
      "inputs": [
        {
          "name": "_addressesToFund",
          "type": "address[]"
        }
      ],
      "name": "sendFunds",
      "outputs": [],
      "payable": false,
      "stateMutability": "nonpayable",
      "type": "function"
    }
  ],
  "bytecode": "0x6080604052600160005534801561001557600080fd5b50610155806100256000396000f300608060405260043610610041576000357c0100000000000000000000000000000000000000000000000000000000900463ffffffff168063ff86055814610043575b005b34801561004f57600080fd5b506100a7600480360381019080803590602001908201803590602001908080602002602001604051908101604052809392919081815260200183836020028082843782019150505050505091929192905050506100a9565b005b60008090505b81518110156101255781818151811015156100c657fe5b9060200190602002015173ffffffffffffffffffffffffffffffffffffffff166108fc6000549081150290604051600060405180830381858888f19350505050158015610117573d6000803e3d6000fd5b5080806001019150506100af565b50505600a165627a7a72305820238a389769d19b5668d6be903ac1933b60813a1f1d646d651ae3ba71de1932dd0029",
  "source": "pragma solidity ^0.4.24;\n\ncontract LimeLoop {\n\n\tuint funds = 1 wei;\n\n    function sendFunds(address[] _addressesToFund) public {\n      \n\t  for (uint i = 0 ; i < _addressesToFund.length; i++) {\n\t\t  _addressesToFund[i].transfer(funds);\n\t  }\n    }\n\n\tfunction () public payable {} \n}",
  "sourcePath": "/Users/martingrigorov/Documents/Lectures/Contracts/contracts/LimeLoop.sol",
  "compiler": {
    "name": "solc",
    "version": "0.4.25+commit.59dbf8f1.Emscripten.clang"
  },
  "schemaVersion": "0.9.6",
  "updatedAt": "2018-11-18T19:56:04.261Z"
}